INFO:config:System polling started.
INFO:config:Decoded FIX message: 8=FIX.4.2|9=65|35=A|34=1|49=CLIENT1|56=EXCHANGE|52=20251001-18:30:00.000|98=0|108=30|10=128
INFO:config:Received FIX message: 8=FIX.4.2|9=65|35=A|34=1|49=CLIENT1|56=EXCHANGE|52=20251001-18:30:00.000|98=0|108=30|10=128
INFO:config:Sending response FIX message: 8=FIX.4.2|9=65|35=A|34=1|49=CLIENT1|56=EXCHANGE|52=20251001-18:30:00.000|98=0|108=30|10=128
INFO:config:Decoded FIX message: 8=FIX.4.4|9=178|35=W|34=2|49=EXCHANGE|56=CLIENT1|52=20251001-22:15:43.123|62=MDReqID123|55=AAPL|268=2|269=0|270=172.35|271=100|269=1|270=172.40|271=200|10=128
INFO:config:Received FIX message: 8=FIX.4.4|9=178|35=W|34=2|49=EXCHANGE|56=CLIENT1|52=20251001-22:15:43.123|62=MDReqID123|55=AAPL|268=2|269=0|270=172.35|271=100|269=1|270=172.40|271=200|10=128
INFO:config:Sending response FIX message: 8=FIX.4.4|9=178|35=W|34=2|49=EXCHANGE|56=CLIENT1|52=20251001-22:15:43.123|62=MDReqID123|55=AAPL|268=2|269=0|270=172.35|271=100|269=1|270=172.40|271=200|10=128
INFO:config:Decoded FIX message: 8=FIX.4.4|9=120|35=X|34=3|49=EXCHANGE|56=CLIENT1|52=20251001-22:15:44.567|62=MDReqID123|268=1|279=0|269=0|270=172.36|271=150|10=055
INFO:config:Received FIX message: 8=FIX.4.4|9=120|35=X|34=3|49=EXCHANGE|56=CLIENT1|52=20251001-22:15:44.567|62=MDReqID123|268=1|279=0|269=0|270=172.36|271=150|10=055
INFO:config:Sending response FIX message: 8=FIX.4.4|9=120|35=X|34=3|49=EXCHANGE|56=CLIENT1|52=20251001-22:15:44.567|62=MDReqID123|268=1|279=0|269=0|270=172.36|271=150|10=055
INFO:config:Decoded FIX message: 8=FIX.4.4|9=112|35=D|34=4|49=CLIENT1|56=EXCHANGE|52=20251001-22:16:00.000|11=ORDER123|55=AAPL|54=1|38=100|44=172.35|40=2|10=072
INFO:config:Received FIX message: 8=FIX.4.4|9=112|35=D|34=4|49=CLIENT1|56=EXCHANGE|52=20251001-22:16:00.000|11=ORDER123|55=AAPL|54=1|38=100|44=172.35|40=2|10=072
INFO:config:Sending response FIX message: 8=FIX.4.4|9=112|35=D|34=4|49=CLIENT1|56=EXCHANGE|52=20251001-22:16:00.000|11=ORDER123|55=AAPL|54=1|38=100|44=172.35|40=2|10=072
INFO:config:Decoded FIX message: 8=FIX.4.4|9=140|35=8|34=5|49=EXCHANGE|56=CLIENT1|52=20251001-22:16:00.100|11=ORDER123|37=EXORD001|55=AAPL|54=1|38=100|39=0|50=0|32=0|31=0|10=200
INFO:config:Received FIX message: 8=FIX.4.4|9=140|35=8|34=5|49=EXCHANGE|56=CLIENT1|52=20251001-22:16:00.100|11=ORDER123|37=EXORD001|55=AAPL|54=1|38=100|39=0|50=0|32=0|31=0|10=200
INFO:config:Sending response FIX message: 8=FIX.4.4|9=140|35=8|34=5|49=EXCHANGE|56=CLIENT1|52=20251001-22:16:00.100|11=ORDER123|37=EXORD001|55=AAPL|54=1|38=100|39=0|50=0|32=0|31=0|10=200
